{
    "address": "0xA67a8E252b28E0AD9573C3e32F26FdF24404d464",
    "abi": [
        {
            "inputs": [
                {
                    "internalType": "address",
                    "name": "priceFeedAddress",
                    "type": "address"
                }
            ],
            "stateMutability": "nonpayable",
            "type": "constructor"
        },
        {
            "inputs": [],
            "name": "FundMe__NotOwner",
            "type": "error"
        },
        {
            "stateMutability": "payable",
            "type": "fallback"
        },
        {
            "inputs": [],
            "name": "MINIMUM_USD",
            "outputs": [
                {
                    "internalType": "uint256",
                    "name": "",
                    "type": "uint256"
                }
            ],
            "stateMutability": "view",
            "type": "function"
        },
        {
            "inputs": [],
            "name": "cheaperWithdraw",
            "outputs": [],
            "stateMutability": "payable",
            "type": "function"
        },
        {
            "inputs": [],
            "name": "fund",
            "outputs": [],
            "stateMutability": "payable",
            "type": "function"
        },
        {
            "inputs": [
                {
                    "internalType": "address",
                    "name": "funder",
                    "type": "address"
                }
            ],
            "name": "getAddressToAmountFunded",
            "outputs": [
                {
                    "internalType": "uint256",
                    "name": "",
                    "type": "uint256"
                }
            ],
            "stateMutability": "view",
            "type": "function"
        },
        {
            "inputs": [
                {
                    "internalType": "uint256",
                    "name": "index",
                    "type": "uint256"
                }
            ],
            "name": "getFunders",
            "outputs": [
                {
                    "internalType": "address",
                    "name": "",
                    "type": "address"
                }
            ],
            "stateMutability": "view",
            "type": "function"
        },
        {
            "inputs": [],
            "name": "getOwner",
            "outputs": [
                {
                    "internalType": "address",
                    "name": "",
                    "type": "address"
                }
            ],
            "stateMutability": "view",
            "type": "function"
        },
        {
            "inputs": [],
            "name": "getPriceFeed",
            "outputs": [
                {
                    "internalType": "contract AggregatorV3Interface",
                    "name": "",
                    "type": "address"
                }
            ],
            "stateMutability": "view",
            "type": "function"
        },
        {
            "inputs": [],
            "name": "withdraw",
            "outputs": [],
            "stateMutability": "nonpayable",
            "type": "function"
        },
        {
            "stateMutability": "payable",
            "type": "receive"
        }
    ],
    "transactionHash": "0x23c7824f82734196bb3225defae1b4ff5ff002e80d7f306c8ac903e7a45539eb",
    "args": [
        "0x8A753747A1Fa494EC906cE90E9f37563A8AF630e"
    ],
    "numDeployments": 2,
    "solcInputHash": "4b5ae97ddcd3fb7dcaeea4cd344e5c81",
    "bytecode": "0x60a06040523480156200001157600080fd5b50604051620012e8380380620012e8833981810160405281019062000037919062000120565b3373ffffffffffffffffffffffffffffffffffffffff1660808173ffffffffffffffffffffffffffffffffffffffff1660601b8152505080600260006101000a81548173ffffffffffffffffffffffffffffffffffffffff021916908373ffffffffffffffffffffffffffffffffffffffff1602179055505062000152565b600080fd5b600073ffffffffffffffffffffffffffffffffffffffff82169050919050565b6000620000e882620000bb565b9050919050565b620000fa81620000db565b81146200010657600080fd5b50565b6000815190506200011a81620000ef565b92915050565b600060208284031215620001395762000138620000b6565b5b6000620001498482850162000109565b91505092915050565b60805160601c611162620001866000396000818161038a015281816105d801528181610628015261081e01526111626000f3fe60806040526004361061007f5760003560e01c8063893d20e81161004e578063893d20e8146101545780639e87a5cd1461017f578063b60d4288146101aa578063be2693f0146101b45761008e565b80630343fb25146100985780633a7b6c74146100d55780633ccfd60b146101125780636b69a592146101295761008e565b3661008e5761008c6101be565b005b6100966101be565b005b3480156100a457600080fd5b506100bf60048036038101906100ba9190610a9a565b6102f8565b6040516100cc9190610ae0565b60405180910390f35b3480156100e157600080fd5b506100fc60048036038101906100f79190610b27565b610341565b6040516101099190610b63565b60405180910390f35b34801561011e57600080fd5b50610127610388565b005b34801561013557600080fd5b5061013e6105c8565b60405161014b9190610ae0565b60405180910390f35b34801561016057600080fd5b506101696105d4565b6040516101769190610b63565b60405180910390f35b34801561018b57600080fd5b506101946105fc565b6040516101a19190610bdd565b60405180910390f35b6101b26101be565b005b6101bc610626565b005b674563918244f400006101fc600260009054906101000a900473ffffffffffffffffffffffffffffffffffffffff16346108b490919063ffffffff16565b101561023d576040517f08c379a000000000000000000000000000000000000000000000000000000000815260040161023490610c55565b60405180910390fd5b6000339080600181540180825580915050600190039060005260206000200160009091909190916101000a81548173ffffffffffffffffffffffffffffffffffffffff021916908373ffffffffffffffffffffffffffffffffffffffff16021790555034600160003373ffffffffffffffffffffffffffffffffffffffff1673ffffffffffffffffffffffffffffffffffffffff16815260200190815260200160002060008282546102ef9190610ca4565b92505081905550565b6000600160008373ffffffffffffffffffffffffffffffffffffffff1673ffffffffffffffffffffffffffffffffffffffff168152602001908152602001600020549050919050565b600080828154811061035657610355610cfa565b5b9060005260206000200160009054906101000a900473ffffffffffffffffffffffffffffffffffffffff169050919050565b7f000000000000000000000000000000000000000000000000000000000000000073ffffffffffffffffffffffffffffffffffffffff163373ffffffffffffffffffffffffffffffffffffffff161461040d576040517f579610db00000000000000000000000000000000000000000000000000000000815260040160405180910390fd5b60005b6000805490508110156104b857600080828154811061043257610431610cfa565b5b9060005260206000200160009054906101000a900473ffffffffffffffffffffffffffffffffffffffff1690506000600160008373ffffffffffffffffffffffffffffffffffffffff1673ffffffffffffffffffffffffffffffffffffffff168152602001908152602001600020819055505080806104b090610d29565b915050610410565b50600067ffffffffffffffff8111156104d4576104d3610d72565b5b6040519080825280602002602001820160405280156105025781602001602082028036833780820191505090505b5060009080519060200190610518929190610990565b5060003373ffffffffffffffffffffffffffffffffffffffff164760405161053f90610dd2565b60006040518083038185875af1925050503d806000811461057c576040519150601f19603f3d011682016040523d82523d6000602084013e610581565b606091505b50509050806105c5576040517f08c379a00000000000000000000000000000000000000000000000000000000081526004016105bc90610e33565b60405180910390fd5b50565b674563918244f4000081565b60007f0000000000000000000000000000000000000000000000000000000000000000905090565b6000600260009054906101000a900473ffffffffffffffffffffffffffffffffffffffff16905090565b7f000000000000000000000000000000000000000000000000000000000000000073ffffffffffffffffffffffffffffffffffffffff163373ffffffffffffffffffffffffffffffffffffffff16146106ab576040517f579610db00000000000000000000000000000000000000000000000000000000815260040160405180910390fd5b60008080548060200260200160405190810160405280929190818152602001828054801561072e57602002820191906000526020600020905b8160009054906101000a900473ffffffffffffffffffffffffffffffffffffffff1673ffffffffffffffffffffffffffffffffffffffff16815260200190600101908083116106e4575b5050505050905060005b81518110156107b957600082828151811061075657610755610cfa565b5b602002602001015190506000600160008373ffffffffffffffffffffffffffffffffffffffff1673ffffffffffffffffffffffffffffffffffffffff168152602001908152602001600020819055505080806107b190610d29565b915050610738565b50600067ffffffffffffffff8111156107d5576107d4610d72565b5b6040519080825280602002602001820160405280156108035781602001602082028036833780820191505090505b5060009080519060200190610819929190610990565b5060007f000000000000000000000000000000000000000000000000000000000000000073ffffffffffffffffffffffffffffffffffffffff164760405161086090610dd2565b60006040518083038185875af1925050503d806000811461089d576040519150601f19603f3d011682016040523d82523d6000602084013e6108a2565b606091505b50509050806108b057600080fd5b5050565b6000806108c0836108f0565b90506000670de0b6b3a764000085836108d99190610e53565b6108e39190610edc565b9050809250505092915050565b6000808273ffffffffffffffffffffffffffffffffffffffff1663feaf968c6040518163ffffffff1660e01b815260040160a06040518083038186803b15801561093957600080fd5b505afa15801561094d573d6000803e3d6000fd5b505050506040513d601f19601f820116820180604052508101906109719190610f9a565b5050509150506402540be400816109889190611015565b915050919050565b828054828255906000526020600020908101928215610a09579160200282015b82811115610a085782518260006101000a81548173ffffffffffffffffffffffffffffffffffffffff021916908373ffffffffffffffffffffffffffffffffffffffff160217905550916020019190600101906109b0565b5b509050610a169190610a1a565b5090565b5b80821115610a33576000816000905550600101610a1b565b5090565b600080fd5b600073ffffffffffffffffffffffffffffffffffffffff82169050919050565b6000610a6782610a3c565b9050919050565b610a7781610a5c565b8114610a8257600080fd5b50565b600081359050610a9481610a6e565b92915050565b600060208284031215610ab057610aaf610a37565b5b6000610abe84828501610a85565b91505092915050565b6000819050919050565b610ada81610ac7565b82525050565b6000602082019050610af56000830184610ad1565b92915050565b610b0481610ac7565b8114610b0f57600080fd5b50565b600081359050610b2181610afb565b92915050565b600060208284031215610b3d57610b3c610a37565b5b6000610b4b84828501610b12565b91505092915050565b610b5d81610a5c565b82525050565b6000602082019050610b786000830184610b54565b92915050565b6000819050919050565b6000610ba3610b9e610b9984610a3c565b610b7e565b610a3c565b9050919050565b6000610bb582610b88565b9050919050565b6000610bc782610baa565b9050919050565b610bd781610bbc565b82525050565b6000602082019050610bf26000830184610bce565b92915050565b600082825260208201905092915050565b7f4469646e742073656e6420656e6f756768000000000000000000000000000000600082015250565b6000610c3f601183610bf8565b9150610c4a82610c09565b602082019050919050565b60006020820190508181036000830152610c6e81610c32565b9050919050565b7f4e487b7100000000000000000000000000000000000000000000000000000000600052601160045260246000fd5b6000610caf82610ac7565b9150610cba83610ac7565b9250827fffffffffffffffffffffffffffffffffffffffffffffffffffffffffffffffff03821115610cef57610cee610c75565b5b828201905092915050565b7f4e487b7100000000000000000000000000000000000000000000000000000000600052603260045260246000fd5b6000610d3482610ac7565b91507fffffffffffffffffffffffffffffffffffffffffffffffffffffffffffffffff821415610d6757610d66610c75565b5b600182019050919050565b7f4e487b7100000000000000000000000000000000000000000000000000000000600052604160045260246000fd5b600081905092915050565b50565b6000610dbc600083610da1565b9150610dc782610dac565b600082019050919050565b6000610ddd82610daf565b9150819050919050565b7f43616c6c204661696c6564000000000000000000000000000000000000000000600082015250565b6000610e1d600b83610bf8565b9150610e2882610de7565b602082019050919050565b60006020820190508181036000830152610e4c81610e10565b9050919050565b6000610e5e82610ac7565b9150610e6983610ac7565b9250817fffffffffffffffffffffffffffffffffffffffffffffffffffffffffffffffff0483118215151615610ea257610ea1610c75565b5b828202905092915050565b7f4e487b7100000000000000000000000000000000000000000000000000000000600052601260045260246000fd5b6000610ee782610ac7565b9150610ef283610ac7565b925082610f0257610f01610ead565b5b828204905092915050565b600069ffffffffffffffffffff82169050919050565b610f2c81610f0d565b8114610f3757600080fd5b50565b600081519050610f4981610f23565b92915050565b6000819050919050565b610f6281610f4f565b8114610f6d57600080fd5b50565b600081519050610f7f81610f59565b92915050565b600081519050610f9481610afb565b92915050565b600080600080600060a08688031215610fb657610fb5610a37565b5b6000610fc488828901610f3a565b9550506020610fd588828901610f70565b9450506040610fe688828901610f85565b9350506060610ff788828901610f85565b925050608061100888828901610f3a565b9150509295509295909350565b600061102082610f4f565b915061102b83610f4f565b9250827f7fffffffffffffffffffffffffffffffffffffffffffffffffffffffffffffff048211600084136000841316161561106a57611069610c75565b5b817f800000000000000000000000000000000000000000000000000000000000000005831260008412600084131616156110a7576110a6610c75565b5b827f800000000000000000000000000000000000000000000000000000000000000005821260008413600084121616156110e4576110e3610c75565b5b827f7fffffffffffffffffffffffffffffffffffffffffffffffffffffffffffffff058212600084126000841216161561112157611120610c75565b5b82820290509291505056fea26469706673582212203a5762dc981a5d85ffee35de2639b446d75cc1050052ce2966a040f101db32a764736f6c63430008080033",
    "devdoc": {
        "author": "Cloud",
        "details": "This implements price feeds as our library",
        "kind": "dev",
        "methods": {
            "fund()": {
                "details": "this implements price feeds as our library"
            }
        },
        "title": "A contract for crowd funding",
        "version": 1
    },
    "userdoc": {
        "kind": "user",
        "methods": {
            "fund()": {
                "notice": "This function funds this contract"
            }
        },
        "notice": "This contract is to demo a sample funding contract",
        "version": 1
    },
    "storageLayout": {
        "storage": [
            {
                "astId": 63,
                "contract": "contracts/FundMe.sol:FundMe",
                "label": "s_funders",
                "offset": 0,
                "slot": "0",
                "type": "t_array(t_address)dyn_storage"
            },
            {
                "astId": 69,
                "contract": "contracts/FundMe.sol:FundMe",
                "label": "s_addressToAmountFunded",
                "offset": 0,
                "slot": "1",
                "type": "t_mapping(t_address,t_uint256)"
            },
            {
                "astId": 72,
                "contract": "contracts/FundMe.sol:FundMe",
                "label": "s_priceFeed",
                "offset": 0,
                "slot": "2",
                "type": "t_contract(AggregatorV3Interface)45"
            }
        ],
        "types": {
            "t_address": {
                "encoding": "inplace",
                "label": "address",
                "numberOfBytes": "20"
            },
            "t_array(t_address)dyn_storage": {
                "base": "t_address",
                "encoding": "dynamic_array",
                "label": "address[]",
                "numberOfBytes": "32"
            },
            "t_contract(AggregatorV3Interface)45": {
                "encoding": "inplace",
                "label": "contract AggregatorV3Interface",
                "numberOfBytes": "20"
            },
            "t_mapping(t_address,t_uint256)": {
                "encoding": "mapping",
                "key": "t_address",
                "label": "mapping(address => uint256)",
                "numberOfBytes": "32",
                "value": "t_uint256"
            },
            "t_uint256": {
                "encoding": "inplace",
                "label": "uint256",
                "numberOfBytes": "32"
            }
        }
    }
}